{
  "_format": "hh-sol-artifact-1",
  "contractName": "SpecialEditionNFT",
  "sourceName": "contracts/SpecialEditionNFT.sol",
  "abi": [
    {
      "inputs": [],
      "stateMutability": "nonpayable",
      "type": "constructor"
    },
    {
      "anonymous": false,
      "inputs": [
        {
          "indexed": true,
          "internalType": "address",
          "name": "owner",
          "type": "address"
        },
        {
          "indexed": true,
          "internalType": "address",
          "name": "approved",
          "type": "address"
        },
        {
          "indexed": true,
          "internalType": "uint256",
          "name": "tokenId",
          "type": "uint256"
        }
      ],
      "name": "Approval",
      "type": "event"
    },
    {
      "anonymous": false,
      "inputs": [
        {
          "indexed": true,
          "internalType": "address",
          "name": "owner",
          "type": "address"
        },
        {
          "indexed": true,
          "internalType": "address",
          "name": "operator",
          "type": "address"
        },
        {
          "indexed": false,
          "internalType": "bool",
          "name": "approved",
          "type": "bool"
        }
      ],
      "name": "ApprovalForAll",
      "type": "event"
    },
    {
      "anonymous": false,
      "inputs": [
        {
          "indexed": false,
          "internalType": "uint256",
          "name": "_fromTokenId",
          "type": "uint256"
        },
        {
          "indexed": false,
          "internalType": "uint256",
          "name": "_toTokenId",
          "type": "uint256"
        }
      ],
      "name": "BatchMetadataUpdate",
      "type": "event"
    },
    {
      "anonymous": false,
      "inputs": [
        {
          "indexed": false,
          "internalType": "uint256",
          "name": "_tokenId",
          "type": "uint256"
        }
      ],
      "name": "MetadataUpdate",
      "type": "event"
    },
    {
      "anonymous": false,
      "inputs": [
        {
          "indexed": true,
          "internalType": "uint256",
          "name": "tokenId",
          "type": "uint256"
        },
        {
          "indexed": true,
          "internalType": "address",
          "name": "owner",
          "type": "address"
        },
        {
          "indexed": false,
          "internalType": "string",
          "name": "title",
          "type": "string"
        },
        {
          "indexed": false,
          "internalType": "string",
          "name": "author",
          "type": "string"
        }
      ],
      "name": "NFTMinted",
      "type": "event"
    },
    {
      "anonymous": false,
      "inputs": [
        {
          "indexed": true,
          "internalType": "uint256",
          "name": "tokenId",
          "type": "uint256"
        },
        {
          "indexed": true,
          "internalType": "address",
          "name": "seller",
          "type": "address"
        },
        {
          "indexed": true,
          "internalType": "address",
          "name": "buyer",
          "type": "address"
        },
        {
          "indexed": false,
          "internalType": "uint256",
          "name": "salePrice",
          "type": "uint256"
        },
        {
          "indexed": false,
          "internalType": "uint256",
          "name": "authorRoyalty",
          "type": "uint256"
        }
      ],
      "name": "NFTResold",
      "type": "event"
    },
    {
      "anonymous": false,
      "inputs": [
        {
          "indexed": true,
          "internalType": "address",
          "name": "previousOwner",
          "type": "address"
        },
        {
          "indexed": true,
          "internalType": "address",
          "name": "newOwner",
          "type": "address"
        }
      ],
      "name": "OwnershipTransferred",
      "type": "event"
    },
    {
      "anonymous": false,
      "inputs": [
        {
          "indexed": true,
          "internalType": "address",
          "name": "from",
          "type": "address"
        },
        {
          "indexed": true,
          "internalType": "address",
          "name": "to",
          "type": "address"
        },
        {
          "indexed": true,
          "internalType": "uint256",
          "name": "tokenId",
          "type": "uint256"
        }
      ],
      "name": "Transfer",
      "type": "event"
    },
    {
      "inputs": [],
      "name": "ROYALTY_PERCENTAGE",
      "outputs": [
        {
          "internalType": "uint256",
          "name": "",
          "type": "uint256"
        }
      ],
      "stateMutability": "view",
      "type": "function"
    },
    {
      "inputs": [
        {
          "internalType": "address",
          "name": "to",
          "type": "address"
        },
        {
          "internalType": "uint256",
          "name": "tokenId",
          "type": "uint256"
        }
      ],
      "name": "approve",
      "outputs": [],
      "stateMutability": "nonpayable",
      "type": "function"
    },
    {
      "inputs": [
        {
          "internalType": "address",
          "name": "owner",
          "type": "address"
        }
      ],
      "name": "balanceOf",
      "outputs": [
        {
          "internalType": "uint256",
          "name": "",
          "type": "uint256"
        }
      ],
      "stateMutability": "view",
      "type": "function"
    },
    {
      "inputs": [
        {
          "internalType": "uint256",
          "name": "tokenId",
          "type": "uint256"
        }
      ],
      "name": "getApproved",
      "outputs": [
        {
          "internalType": "address",
          "name": "",
          "type": "address"
        }
      ],
      "stateMutability": "view",
      "type": "function"
    },
    {
      "inputs": [
        {
          "internalType": "uint256",
          "name": "tokenId",
          "type": "uint256"
        }
      ],
      "name": "getBookDetails",
      "outputs": [
        {
          "internalType": "string",
          "name": "title",
          "type": "string"
        },
        {
          "internalType": "string",
          "name": "author",
          "type": "string"
        }
      ],
      "stateMutability": "view",
      "type": "function"
    },
    {
      "inputs": [
        {
          "internalType": "address",
          "name": "owner",
          "type": "address"
        },
        {
          "internalType": "address",
          "name": "operator",
          "type": "address"
        }
      ],
      "name": "isApprovedForAll",
      "outputs": [
        {
          "internalType": "bool",
          "name": "",
          "type": "bool"
        }
      ],
      "stateMutability": "view",
      "type": "function"
    },
    {
      "inputs": [
        {
          "internalType": "address",
          "name": "recipient",
          "type": "address"
        },
        {
          "internalType": "string",
          "name": "tokenURI",
          "type": "string"
        },
        {
          "internalType": "string",
          "name": "bookTitle",
          "type": "string"
        },
        {
          "internalType": "string",
          "name": "author",
          "type": "string"
        }
      ],
      "name": "mintNFT",
      "outputs": [
        {
          "internalType": "uint256",
          "name": "",
          "type": "uint256"
        }
      ],
      "stateMutability": "nonpayable",
      "type": "function"
    },
    {
      "inputs": [],
      "name": "name",
      "outputs": [
        {
          "internalType": "string",
          "name": "",
          "type": "string"
        }
      ],
      "stateMutability": "view",
      "type": "function"
    },
    {
      "inputs": [],
      "name": "owner",
      "outputs": [
        {
          "internalType": "address",
          "name": "",
          "type": "address"
        }
      ],
      "stateMutability": "view",
      "type": "function"
    },
    {
      "inputs": [
        {
          "internalType": "uint256",
          "name": "tokenId",
          "type": "uint256"
        }
      ],
      "name": "ownerOf",
      "outputs": [
        {
          "internalType": "address",
          "name": "",
          "type": "address"
        }
      ],
      "stateMutability": "view",
      "type": "function"
    },
    {
      "inputs": [],
      "name": "renounceOwnership",
      "outputs": [],
      "stateMutability": "nonpayable",
      "type": "function"
    },
    {
      "inputs": [
        {
          "internalType": "uint256",
          "name": "tokenId",
          "type": "uint256"
        },
        {
          "internalType": "address",
          "name": "buyer",
          "type": "address"
        },
        {
          "internalType": "uint256",
          "name": "salePrice",
          "type": "uint256"
        }
      ],
      "name": "resellNFT",
      "outputs": [],
      "stateMutability": "nonpayable",
      "type": "function"
    },
    {
      "inputs": [
        {
          "internalType": "address",
          "name": "from",
          "type": "address"
        },
        {
          "internalType": "address",
          "name": "to",
          "type": "address"
        },
        {
          "internalType": "uint256",
          "name": "tokenId",
          "type": "uint256"
        }
      ],
      "name": "safeTransferFrom",
      "outputs": [],
      "stateMutability": "nonpayable",
      "type": "function"
    },
    {
      "inputs": [
        {
          "internalType": "address",
          "name": "from",
          "type": "address"
        },
        {
          "internalType": "address",
          "name": "to",
          "type": "address"
        },
        {
          "internalType": "uint256",
          "name": "tokenId",
          "type": "uint256"
        },
        {
          "internalType": "bytes",
          "name": "data",
          "type": "bytes"
        }
      ],
      "name": "safeTransferFrom",
      "outputs": [],
      "stateMutability": "nonpayable",
      "type": "function"
    },
    {
      "inputs": [
        {
          "internalType": "address",
          "name": "operator",
          "type": "address"
        },
        {
          "internalType": "bool",
          "name": "approved",
          "type": "bool"
        }
      ],
      "name": "setApprovalForAll",
      "outputs": [],
      "stateMutability": "nonpayable",
      "type": "function"
    },
    {
      "inputs": [
        {
          "internalType": "bytes4",
          "name": "interfaceId",
          "type": "bytes4"
        }
      ],
      "name": "supportsInterface",
      "outputs": [
        {
          "internalType": "bool",
          "name": "",
          "type": "bool"
        }
      ],
      "stateMutability": "view",
      "type": "function"
    },
    {
      "inputs": [],
      "name": "symbol",
      "outputs": [
        {
          "internalType": "string",
          "name": "",
          "type": "string"
        }
      ],
      "stateMutability": "view",
      "type": "function"
    },
    {
      "inputs": [
        {
          "internalType": "uint256",
          "name": "tokenId",
          "type": "uint256"
        }
      ],
      "name": "tokenURI",
      "outputs": [
        {
          "internalType": "string",
          "name": "",
          "type": "string"
        }
      ],
      "stateMutability": "view",
      "type": "function"
    },
    {
      "inputs": [
        {
          "internalType": "address",
          "name": "from",
          "type": "address"
        },
        {
          "internalType": "address",
          "name": "to",
          "type": "address"
        },
        {
          "internalType": "uint256",
          "name": "tokenId",
          "type": "uint256"
        }
      ],
      "name": "transferFrom",
      "outputs": [],
      "stateMutability": "nonpayable",
      "type": "function"
    },
    {
      "inputs": [
        {
          "internalType": "address",
          "name": "newOwner",
          "type": "address"
        }
      ],
      "name": "transferOwnership",
      "outputs": [],
      "stateMutability": "nonpayable",
      "type": "function"
    }
  ],
  "bytecode": "0x608060405234801561001057600080fd5b506040518060400160405280601281526020017f5370656369616c45646974696f6e426f6f6b00000000000000000000000000008152506040518060400160405280600381526020017f5345420000000000000000000000000000000000000000000000000000000000815250816000908161008c91906103de565b50806001908161009c91906103de565b5050506100bb6100b06100c060201b60201c565b6100c860201b60201c565b6104b0565b600033905090565b6000600760009054906101000a900473ffffffffffffffffffffffffffffffffffffffff16905081600760006101000a81548173ffffffffffffffffffffffffffffffffffffffff021916908373ffffffffffffffffffffffffffffffffffffffff1602179055508173ffffffffffffffffffffffffffffffffffffffff168173ffffffffffffffffffffffffffffffffffffffff167f8be0079c531659141344cd1fd0a4f28419497f9722a3daafe3b4186f6b6457e060405160405180910390a35050565b600081519050919050565b7f4e487b7100000000000000000000000000000000000000000000000000000000600052604160045260246000fd5b7f4e487b7100000000000000000000000000000000000000000000000000000000600052602260045260246000fd5b6000600282049050600182168061020f57607f821691505b602082108103610222576102216101c8565b5b50919050565b60008190508160005260206000209050919050565b60006020601f8301049050919050565b600082821b905092915050565b60006008830261028a7fffffffffffffffffffffffffffffffffffffffffffffffffffffffffffffffff8261024d565b610294868361024d565b95508019841693508086168417925050509392505050565b6000819050919050565b6000819050919050565b60006102db6102d66102d1846102ac565b6102b6565b6102ac565b9050919050565b6000819050919050565b6102f5836102c0565b610309610301826102e2565b84845461025a565b825550505050565b600090565b61031e610311565b6103298184846102ec565b505050565b5b8181101561034d57610342600082610316565b60018101905061032f565b5050565b601f8211156103925761036381610228565b61036c8461023d565b8101602085101561037b578190505b61038f6103878561023d565b83018261032e565b50505b505050565b600082821c905092915050565b60006103b560001984600802610397565b1980831691505092915050565b60006103ce83836103a4565b9150826002028217905092915050565b6103e78261018e565b67ffffffffffffffff811115610400576103ff610199565b5b61040a82546101f7565b610415828285610351565b600060209050601f8311600181146104485760008415610436578287015190505b61044085826103c2565b8655506104a8565b601f19841661045686610228565b60005b8281101561047e57848901518255600182019150602085019450602081019050610459565b8683101561049b5784890151610497601f8916826103a4565b8355505b6001600288020188555050505b505050505050565b613432806104bf6000396000f3fe608060405234801561001057600080fd5b506004361061012c5760003560e01c8063715018a6116100ad578063a22cb46511610071578063a22cb46514610344578063b88d4fde14610360578063c87b56dd1461037c578063e985e9c5146103ac578063f2fde38b146103dc5761012c565b8063715018a61461029d57806374ff4818146102a75780637791d3f3146102d85780638da5cb5b1461030857806395d89b41146103265761012c565b806342842e0e116100f457806342842e0e146101e7578063463b08db146102035780636352211e1461022157806370a08231146102515780637134a2ad146102815761012c565b806301ffc9a71461013157806306fdde0314610161578063081812fc1461017f578063095ea7b3146101af57806323b872dd146101cb575b600080fd5b61014b60048036038101906101469190611fbb565b6103f8565b6040516101589190612003565b60405180910390f35b610169610459565b60405161017691906120ae565b60405180910390f35b61019960048036038101906101949190612106565b6104eb565b6040516101a69190612174565b60405180910390f35b6101c960048036038101906101c491906121bb565b610531565b005b6101e560048036038101906101e091906121fb565b610648565b005b61020160048036038101906101fc91906121fb565b6106a8565b005b61020b6106c8565b604051610218919061225d565b60405180910390f35b61023b60048036038101906102369190612106565b6106cd565b6040516102489190612174565b60405180910390f35b61026b60048036038101906102669190612278565b610753565b604051610278919061225d565b60405180910390f35b61029b600480360381019061029691906122a5565b61080a565b005b6102a5610916565b005b6102c160048036038101906102bc9190612106565b61092a565b6040516102cf9291906122f8565b60405180910390f35b6102f260048036038101906102ed9190612464565b610a7a565b6040516102ff919061225d565b60405180910390f35b610310610b6b565b60405161031d9190612174565b60405180910390f35b61032e610b95565b60405161033b91906120ae565b60405180910390f35b61035e6004803603810190610359919061254b565b610c27565b005b61037a6004803603810190610375919061262c565b610c3d565b005b61039660048036038101906103919190612106565b610c9f565b6040516103a391906120ae565b60405180910390f35b6103c660048036038101906103c191906126af565b610db1565b6040516103d39190612003565b60405180910390f35b6103f660048036038101906103f19190612278565b610e45565b005b6000634906490660e01b7bffffffffffffffffffffffffffffffffffffffffffffffffffffffff1916827bffffffffffffffffffffffffffffffffffffffffffffffffffffffff19161480610452575061045182610ec8565b5b9050919050565b6060600080546104689061271e565b80601f01602080910402602001604051908101604052809291908181526020018280546104949061271e565b80156104e15780601f106104b6576101008083540402835291602001916104e1565b820191906000526020600020905b8154815290600101906020018083116104c457829003601f168201915b5050505050905090565b60006104f682610faa565b6004600083815260200190815260200160002060009054906101000a900473ffffffffffffffffffffffffffffffffffffffff169050919050565b600061053c826106cd565b90508073ffffffffffffffffffffffffffffffffffffffff168373ffffffffffffffffffffffffffffffffffffffff16036105ac576040517f08c379a00000000000000000000000000000000000000000000000000000000081526004016105a3906127c1565b60405180910390fd5b8073ffffffffffffffffffffffffffffffffffffffff166105cb610ff5565b73ffffffffffffffffffffffffffffffffffffffff1614806105fa57506105f9816105f4610ff5565b610db1565b5b610639576040517f08c379a000000000000000000000000000000000000000000000000000000000815260040161063090612853565b60405180910390fd5b6106438383610ffd565b505050565b610659610653610ff5565b826110b6565b610698576040517f08c379a000000000000000000000000000000000000000000000000000000000815260040161068f906128e5565b60405180910390fd5b6106a383838361114b565b505050565b6106c383838360405180602001604052806000815250610c3d565b505050565b600a81565b6000806106d983611444565b9050600073ffffffffffffffffffffffffffffffffffffffff168173ffffffffffffffffffffffffffffffffffffffff160361074a576040517f08c379a000000000000000000000000000000000000000000000000000000000815260040161074190612951565b60405180910390fd5b80915050919050565b60008073ffffffffffffffffffffffffffffffffffffffff168273ffffffffffffffffffffffffffffffffffffffff16036107c3576040517f08c379a00000000000000000000000000000000000000000000000000000000081526004016107ba906129e3565b60405180910390fd5b600360008373ffffffffffffffffffffffffffffffffffffffff1673ffffffffffffffffffffffffffffffffffffffff168152602001908152602001600020549050919050565b3373ffffffffffffffffffffffffffffffffffffffff1661082a846106cd565b73ffffffffffffffffffffffffffffffffffffffff1614610880576040517f08c379a000000000000000000000000000000000000000000000000000000000815260040161087790612a4f565b60405180910390fd5b60006064600a836108919190612a9e565b61089b9190612b0f565b90506108a833848661114b565b8273ffffffffffffffffffffffffffffffffffffffff163373ffffffffffffffffffffffffffffffffffffffff16857fcf2995d162fa365c989ea30943f7d6d04b6881db78184282707a8fccf7feeab08585604051610908929190612b40565b60405180910390a450505050565b61091e611481565b61092860006114ff565b565b60608060096000848152602001908152602001600020600001600960008581526020019081526020016000206001018180546109659061271e565b80601f01602080910402602001604051908101604052809291908181526020018280546109919061271e565b80156109de5780601f106109b3576101008083540402835291602001916109de565b820191906000526020600020905b8154815290600101906020018083116109c157829003601f168201915b505050505091508080546109f19061271e565b80601f0160208091040260200160405190810160405280929190818152602001828054610a1d9061271e565b8015610a6a5780601f10610a3f57610100808354040283529160200191610a6a565b820191906000526020600020905b815481529060010190602001808311610a4d57829003601f168201915b5050505050905091509150915091565b6000610a84611481565b60086000815480929190610a9790612b69565b919050555060006008549050610aad86826115c5565b610ab781866117e2565b604051806040016040528085815260200184815250600960008381526020019081526020016000206000820151816000019081610af49190612d5d565b506020820151816001019081610b0a9190612d5d565b509050508573ffffffffffffffffffffffffffffffffffffffff16817f0372de3fa001ec655fcb2f8096e13cb1f68d1b8b9bb9d2674fc7d880de7e80458686604051610b579291906122f8565b60405180910390a380915050949350505050565b6000600760009054906101000a900473ffffffffffffffffffffffffffffffffffffffff16905090565b606060018054610ba49061271e565b80601f0160208091040260200160405190810160405280929190818152602001828054610bd09061271e565b8015610c1d5780601f10610bf257610100808354040283529160200191610c1d565b820191906000526020600020905b815481529060010190602001808311610c0057829003601f168201915b5050505050905090565b610c39610c32610ff5565b8383611886565b5050565b610c4e610c48610ff5565b836110b6565b610c8d576040517f08c379a0000000000000000000000000000000000000000000000000000000008152600401610c84906128e5565b60405180910390fd5b610c99848484846119f2565b50505050565b6060610caa82610faa565b6000600660008481526020019081526020016000208054610cca9061271e565b80601f0160208091040260200160405190810160405280929190818152602001828054610cf69061271e565b8015610d435780601f10610d1857610100808354040283529160200191610d43565b820191906000526020600020905b815481529060010190602001808311610d2657829003601f168201915b505050505090506000610d54611a4e565b90506000815103610d69578192505050610dac565b600082511115610d9e578082604051602001610d86929190612e6b565b60405160208183030381529060405292505050610dac565b610da784611a65565b925050505b919050565b6000600560008473ffffffffffffffffffffffffffffffffffffffff1673ffffffffffffffffffffffffffffffffffffffff16815260200190815260200160002060008373ffffffffffffffffffffffffffffffffffffffff1673ffffffffffffffffffffffffffffffffffffffff16815260200190815260200160002060009054906101000a900460ff16905092915050565b610e4d611481565b600073ffffffffffffffffffffffffffffffffffffffff168173ffffffffffffffffffffffffffffffffffffffff1603610ebc576040517f08c379a0000000000000000000000000000000000000000000000000000000008152600401610eb390612f01565b60405180910390fd5b610ec5816114ff565b50565b60007f80ac58cd000000000000000000000000000000000000000000000000000000007bffffffffffffffffffffffffffffffffffffffffffffffffffffffff1916827bffffffffffffffffffffffffffffffffffffffffffffffffffffffff19161480610f9357507f5b5e139f000000000000000000000000000000000000000000000000000000007bffffffffffffffffffffffffffffffffffffffffffffffffffffffff1916827bffffffffffffffffffffffffffffffffffffffffffffffffffffffff1916145b80610fa35750610fa282611acd565b5b9050919050565b610fb381611b37565b610ff2576040517f08c379a0000000000000000000000000000000000000000000000000000000008152600401610fe990612951565b60405180910390fd5b50565b600033905090565b816004600083815260200190815260200160002060006101000a81548173ffffffffffffffffffffffffffffffffffffffff021916908373ffffffffffffffffffffffffffffffffffffffff160217905550808273ffffffffffffffffffffffffffffffffffffffff16611070836106cd565b73ffffffffffffffffffffffffffffffffffffffff167f8c5be1e5ebec7d5bd14f71427d1e84f3dd0314c0f7b2291e5b200ac8c7c3b92560405160405180910390a45050565b6000806110c2836106cd565b90508073ffffffffffffffffffffffffffffffffffffffff168473ffffffffffffffffffffffffffffffffffffffff16148061110457506111038185610db1565b5b8061114257508373ffffffffffffffffffffffffffffffffffffffff1661112a846104eb565b73ffffffffffffffffffffffffffffffffffffffff16145b91505092915050565b8273ffffffffffffffffffffffffffffffffffffffff1661116b826106cd565b73ffffffffffffffffffffffffffffffffffffffff16146111c1576040517f08c379a00000000000000000000000000000000000000000000000000000000081526004016111b890612f93565b60405180910390fd5b600073ffffffffffffffffffffffffffffffffffffffff168273ffffffffffffffffffffffffffffffffffffffff1603611230576040517f08c379a000000000000000000000000000000000000000000000000000000000815260040161122790613025565b60405180910390fd5b61123d8383836001611b78565b8273ffffffffffffffffffffffffffffffffffffffff1661125d826106cd565b73ffffffffffffffffffffffffffffffffffffffff16146112b3576040517f08c379a00000000000000000000000000000000000000000000000000000000081526004016112aa90612f93565b60405180910390fd5b6004600082815260200190815260200160002060006101000a81549073ffffffffffffffffffffffffffffffffffffffff02191690556001600360008573ffffffffffffffffffffffffffffffffffffffff1673ffffffffffffffffffffffffffffffffffffffff168152602001908152602001600020600082825403925050819055506001600360008473ffffffffffffffffffffffffffffffffffffffff1673ffffffffffffffffffffffffffffffffffffffff16815260200190815260200160002060008282540192505081905550816002600083815260200190815260200160002060006101000a81548173ffffffffffffffffffffffffffffffffffffffff021916908373ffffffffffffffffffffffffffffffffffffffff160217905550808273ffffffffffffffffffffffffffffffffffffffff168473ffffffffffffffffffffffffffffffffffffffff167fddf252ad1be2c89b69c2b068fc378daa952ba7f163c4a11628f55a4df523b3ef60405160405180910390a461143f8383836001611b7e565b505050565b60006002600083815260200190815260200160002060009054906101000a900473ffffffffffffffffffffffffffffffffffffffff169050919050565b611489610ff5565b73ffffffffffffffffffffffffffffffffffffffff166114a7610b6b565b73ffffffffffffffffffffffffffffffffffffffff16146114fd576040517f08c379a00000000000000000000000000000000000000000000000000000000081526004016114f490613091565b60405180910390fd5b565b6000600760009054906101000a900473ffffffffffffffffffffffffffffffffffffffff16905081600760006101000a81548173ffffffffffffffffffffffffffffffffffffffff021916908373ffffffffffffffffffffffffffffffffffffffff1602179055508173ffffffffffffffffffffffffffffffffffffffff168173ffffffffffffffffffffffffffffffffffffffff167f8be0079c531659141344cd1fd0a4f28419497f9722a3daafe3b4186f6b6457e060405160405180910390a35050565b600073ffffffffffffffffffffffffffffffffffffffff168273ffffffffffffffffffffffffffffffffffffffff1603611634576040517f08c379a000000000000000000000000000000000000000000000000000000000815260040161162b906130fd565b60405180910390fd5b61163d81611b37565b1561167d576040517f08c379a000000000000000000000000000000000000000000000000000000000815260040161167490613169565b60405180910390fd5b61168b600083836001611b78565b61169481611b37565b156116d4576040517f08c379a00000000000000000000000000000000000000000000000000000000081526004016116cb90613169565b60405180910390fd5b6001600360008473ffffffffffffffffffffffffffffffffffffffff1673ffffffffffffffffffffffffffffffffffffffff16815260200190815260200160002060008282540192505081905550816002600083815260200190815260200160002060006101000a81548173ffffffffffffffffffffffffffffffffffffffff021916908373ffffffffffffffffffffffffffffffffffffffff160217905550808273ffffffffffffffffffffffffffffffffffffffff16600073ffffffffffffffffffffffffffffffffffffffff167fddf252ad1be2c89b69c2b068fc378daa952ba7f163c4a11628f55a4df523b3ef60405160405180910390a46117de600083836001611b7e565b5050565b6117eb82611b37565b61182a576040517f08c379a0000000000000000000000000000000000000000000000000000000008152600401611821906131fb565b60405180910390fd5b8060066000848152602001908152602001600020908161184a9190612d5d565b507ff8e1a15aba9398e019f0b49df1a4fde98ee17ae345cb5f6b5e2c27f5033e8ce78260405161187a919061225d565b60405180910390a15050565b8173ffffffffffffffffffffffffffffffffffffffff168373ffffffffffffffffffffffffffffffffffffffff16036118f4576040517f08c379a00000000000000000000000000000000000000000000000000000000081526004016118eb90613267565b60405180910390fd5b80600560008573ffffffffffffffffffffffffffffffffffffffff1673ffffffffffffffffffffffffffffffffffffffff16815260200190815260200160002060008473ffffffffffffffffffffffffffffffffffffffff1673ffffffffffffffffffffffffffffffffffffffff16815260200190815260200160002060006101000a81548160ff0219169083151502179055508173ffffffffffffffffffffffffffffffffffffffff168373ffffffffffffffffffffffffffffffffffffffff167f17307eab39ab6107e8899845ad3d59bd9653f200f220920489ca2b5937696c31836040516119e59190612003565b60405180910390a3505050565b6119fd84848461114b565b611a0984848484611b84565b611a48576040517f08c379a0000000000000000000000000000000000000000000000000000000008152600401611a3f906132f9565b60405180910390fd5b50505050565b606060405180602001604052806000815250905090565b6060611a7082610faa565b6000611a7a611a4e565b90506000815111611a9a5760405180602001604052806000815250611ac5565b80611aa484611d0b565b604051602001611ab5929190612e6b565b6040516020818303038152906040525b915050919050565b60007f01ffc9a7000000000000000000000000000000000000000000000000000000007bffffffffffffffffffffffffffffffffffffffffffffffffffffffff1916827bffffffffffffffffffffffffffffffffffffffffffffffffffffffff1916149050919050565b60008073ffffffffffffffffffffffffffffffffffffffff16611b5983611444565b73ffffffffffffffffffffffffffffffffffffffff1614159050919050565b50505050565b50505050565b6000611ba58473ffffffffffffffffffffffffffffffffffffffff16611dd9565b15611cfe578373ffffffffffffffffffffffffffffffffffffffff1663150b7a02611bce610ff5565b8786866040518563ffffffff1660e01b8152600401611bf0949392919061336e565b6020604051808303816000875af1925050508015611c2c57506040513d601f19601f82011682018060405250810190611c2991906133cf565b60015b611cae573d8060008114611c5c576040519150601f19603f3d011682016040523d82523d6000602084013e611c61565b606091505b506000815103611ca6576040517f08c379a0000000000000000000000000000000000000000000000000000000008152600401611c9d906132f9565b60405180910390fd5b805181602001fd5b63150b7a0260e01b7bffffffffffffffffffffffffffffffffffffffffffffffffffffffff1916817bffffffffffffffffffffffffffffffffffffffffffffffffffffffff191614915050611d03565b600190505b949350505050565b606060006001611d1a84611dfc565b01905060008167ffffffffffffffff811115611d3957611d38612339565b5b6040519080825280601f01601f191660200182016040528015611d6b5781602001600182028036833780820191505090505b509050600082602001820190505b600115611dce578080600190039150507f3031323334353637383961626364656600000000000000000000000000000000600a86061a8153600a8581611dc257611dc1612ae0565b5b04945060008503611d79575b819350505050919050565b6000808273ffffffffffffffffffffffffffffffffffffffff163b119050919050565b600080600090507a184f03e93ff9f4daa797ed6e38ed64bf6a1f0100000000000000008310611e5a577a184f03e93ff9f4daa797ed6e38ed64bf6a1f0100000000000000008381611e5057611e4f612ae0565b5b0492506040810190505b6d04ee2d6d415b85acef81000000008310611e97576d04ee2d6d415b85acef81000000008381611e8d57611e8c612ae0565b5b0492506020810190505b662386f26fc100008310611ec657662386f26fc100008381611ebc57611ebb612ae0565b5b0492506010810190505b6305f5e1008310611eef576305f5e1008381611ee557611ee4612ae0565b5b0492506008810190505b6127108310611f14576127108381611f0a57611f09612ae0565b5b0492506004810190505b60648310611f375760648381611f2d57611f2c612ae0565b5b0492506002810190505b600a8310611f46576001810190505b80915050919050565b6000604051905090565b600080fd5b600080fd5b60007fffffffff0000000000000000000000000000000000000000000000000000000082169050919050565b611f9881611f63565b8114611fa357600080fd5b50565b600081359050611fb581611f8f565b92915050565b600060208284031215611fd157611fd0611f59565b5b6000611fdf84828501611fa6565b91505092915050565b60008115159050919050565b611ffd81611fe8565b82525050565b60006020820190506120186000830184611ff4565b92915050565b600081519050919050565b600082825260208201905092915050565b60005b8381101561205857808201518184015260208101905061203d565b60008484015250505050565b6000601f19601f8301169050919050565b60006120808261201e565b61208a8185612029565b935061209a81856020860161203a565b6120a381612064565b840191505092915050565b600060208201905081810360008301526120c88184612075565b905092915050565b6000819050919050565b6120e3816120d0565b81146120ee57600080fd5b50565b600081359050612100816120da565b92915050565b60006020828403121561211c5761211b611f59565b5b600061212a848285016120f1565b91505092915050565b600073ffffffffffffffffffffffffffffffffffffffff82169050919050565b600061215e82612133565b9050919050565b61216e81612153565b82525050565b60006020820190506121896000830184612165565b92915050565b61219881612153565b81146121a357600080fd5b50565b6000813590506121b58161218f565b92915050565b600080604083850312156121d2576121d1611f59565b5b60006121e0858286016121a6565b92505060206121f1858286016120f1565b9150509250929050565b60008060006060848603121561221457612213611f59565b5b6000612222868287016121a6565b9350506020612233868287016121a6565b9250506040612244868287016120f1565b9150509250925092565b612257816120d0565b82525050565b6000602082019050612272600083018461224e565b92915050565b60006020828403121561228e5761228d611f59565b5b600061229c848285016121a6565b91505092915050565b6000806000606084860312156122be576122bd611f59565b5b60006122cc868287016120f1565b93505060206122dd868287016121a6565b92505060406122ee868287016120f1565b9150509250925092565b600060408201905081810360008301526123128185612075565b905081810360208301526123268184612075565b90509392505050565b600080fd5b600080fd5b7f4e487b7100000000000000000000000000000000000000000000000000000000600052604160045260246000fd5b61237182612064565b810181811067ffffffffffffffff821117156123905761238f612339565b5b80604052505050565b60006123a3611f4f565b90506123af8282612368565b919050565b600067ffffffffffffffff8211156123cf576123ce612339565b5b6123d882612064565b9050602081019050919050565b82818337600083830152505050565b6000612407612402846123b4565b612399565b90508281526020810184848401111561242357612422612334565b5b61242e8482856123e5565b509392505050565b600082601f83011261244b5761244a61232f565b5b813561245b8482602086016123f4565b91505092915050565b6000806000806080858703121561247e5761247d611f59565b5b600061248c878288016121a6565b945050602085013567ffffffffffffffff8111156124ad576124ac611f5e565b5b6124b987828801612436565b935050604085013567ffffffffffffffff8111156124da576124d9611f5e565b5b6124e687828801612436565b925050606085013567ffffffffffffffff81111561250757612506611f5e565b5b61251387828801612436565b91505092959194509250565b61252881611fe8565b811461253357600080fd5b50565b6000813590506125458161251f565b92915050565b6000806040838503121561256257612561611f59565b5b6000612570858286016121a6565b925050602061258185828601612536565b9150509250929050565b600067ffffffffffffffff8211156125a6576125a5612339565b5b6125af82612064565b9050602081019050919050565b60006125cf6125ca8461258b565b612399565b9050828152602081018484840111156125eb576125ea612334565b5b6125f68482856123e5565b509392505050565b600082601f8301126126135761261261232f565b5b81356126238482602086016125bc565b91505092915050565b6000806000806080858703121561264657612645611f59565b5b6000612654878288016121a6565b9450506020612665878288016121a6565b9350506040612676878288016120f1565b925050606085013567ffffffffffffffff81111561269757612696611f5e565b5b6126a3878288016125fe565b91505092959194509250565b600080604083850312156126c6576126c5611f59565b5b60006126d4858286016121a6565b92505060206126e5858286016121a6565b9150509250929050565b7f4e487b7100000000000000000000000000000000000000000000000000000000600052602260045260246000fd5b6000600282049050600182168061273657607f821691505b602082108103612749576127486126ef565b5b50919050565b7f4552433732313a20617070726f76616c20746f2063757272656e74206f776e6560008201527f7200000000000000000000000000000000000000000000000000000000000000602082015250565b60006127ab602183612029565b91506127b68261274f565b604082019050919050565b600060208201905081810360008301526127da8161279e565b9050919050565b7f4552433732313a20617070726f76652063616c6c6572206973206e6f7420746f60008201527f6b656e206f776e6572206f7220617070726f76656420666f7220616c6c000000602082015250565b600061283d603d83612029565b9150612848826127e1565b604082019050919050565b6000602082019050818103600083015261286c81612830565b9050919050565b7f4552433732313a2063616c6c6572206973206e6f7420746f6b656e206f776e6560008201527f72206f7220617070726f76656400000000000000000000000000000000000000602082015250565b60006128cf602d83612029565b91506128da82612873565b604082019050919050565b600060208201905081810360008301526128fe816128c2565b9050919050565b7f4552433732313a20696e76616c696420746f6b656e2049440000000000000000600082015250565b600061293b601883612029565b915061294682612905565b602082019050919050565b6000602082019050818103600083015261296a8161292e565b9050919050565b7f4552433732313a2061646472657373207a65726f206973206e6f74206120766160008201527f6c6964206f776e65720000000000000000000000000000000000000000000000602082015250565b60006129cd602983612029565b91506129d882612971565b604082019050919050565b600060208201905081810360008301526129fc816129c0565b9050919050565b7f4e6f7420746865204e4654206f776e6572000000000000000000000000000000600082015250565b6000612a39601183612029565b9150612a4482612a03565b602082019050919050565b60006020820190508181036000830152612a6881612a2c565b9050919050565b7f4e487b7100000000000000000000000000000000000000000000000000000000600052601160045260246000fd5b6000612aa9826120d0565b9150612ab4836120d0565b9250828202612ac2816120d0565b91508282048414831517612ad957612ad8612a6f565b5b5092915050565b7f4e487b7100000000000000000000000000000000000000000000000000000000600052601260045260246000fd5b6000612b1a826120d0565b9150612b25836120d0565b925082612b3557612b34612ae0565b5b828204905092915050565b6000604082019050612b55600083018561224e565b612b62602083018461224e565b9392505050565b6000612b74826120d0565b91507fffffffffffffffffffffffffffffffffffffffffffffffffffffffffffffffff8203612ba657612ba5612a6f565b5b600182019050919050565b60008190508160005260206000209050919050565b60006020601f8301049050919050565b600082821b905092915050565b600060088302612c137fffffffffffffffffffffffffffffffffffffffffffffffffffffffffffffffff82612bd6565b612c1d8683612bd6565b95508019841693508086168417925050509392505050565b6000819050919050565b6000612c5a612c55612c50846120d0565b612c35565b6120d0565b9050919050565b6000819050919050565b612c7483612c3f565b612c88612c8082612c61565b848454612be3565b825550505050565b600090565b612c9d612c90565b612ca8818484612c6b565b505050565b5b81811015612ccc57612cc1600082612c95565b600181019050612cae565b5050565b601f821115612d1157612ce281612bb1565b612ceb84612bc6565b81016020851015612cfa578190505b612d0e612d0685612bc6565b830182612cad565b50505b505050565b600082821c905092915050565b6000612d3460001984600802612d16565b1980831691505092915050565b6000612d4d8383612d23565b9150826002028217905092915050565b612d668261201e565b67ffffffffffffffff811115612d7f57612d7e612339565b5b612d89825461271e565b612d94828285612cd0565b600060209050601f831160018114612dc75760008415612db5578287015190505b612dbf8582612d41565b865550612e27565b601f198416612dd586612bb1565b60005b82811015612dfd57848901518255600182019150602085019450602081019050612dd8565b86831015612e1a5784890151612e16601f891682612d23565b8355505b6001600288020188555050505b505050505050565b600081905092915050565b6000612e458261201e565b612e4f8185612e2f565b9350612e5f81856020860161203a565b80840191505092915050565b6000612e778285612e3a565b9150612e838284612e3a565b91508190509392505050565b7f4f776e61626c653a206e6577206f776e657220697320746865207a65726f206160008201527f6464726573730000000000000000000000000000000000000000000000000000602082015250565b6000612eeb602683612029565b9150612ef682612e8f565b604082019050919050565b60006020820190508181036000830152612f1a81612ede565b9050919050565b7f4552433732313a207472616e736665722066726f6d20696e636f72726563742060008201527f6f776e6572000000000000000000000000000000000000000000000000000000602082015250565b6000612f7d602583612029565b9150612f8882612f21565b604082019050919050565b60006020820190508181036000830152612fac81612f70565b9050919050565b7f4552433732313a207472616e7366657220746f20746865207a65726f2061646460008201527f7265737300000000000000000000000000000000000000000000000000000000602082015250565b600061300f602483612029565b915061301a82612fb3565b604082019050919050565b6000602082019050818103600083015261303e81613002565b9050919050565b7f4f776e61626c653a2063616c6c6572206973206e6f7420746865206f776e6572600082015250565b600061307b602083612029565b915061308682613045565b602082019050919050565b600060208201905081810360008301526130aa8161306e565b9050919050565b7f4552433732313a206d696e7420746f20746865207a65726f2061646472657373600082015250565b60006130e7602083612029565b91506130f2826130b1565b602082019050919050565b60006020820190508181036000830152613116816130da565b9050919050565b7f4552433732313a20746f6b656e20616c7265616479206d696e74656400000000600082015250565b6000613153601c83612029565b915061315e8261311d565b602082019050919050565b6000602082019050818103600083015261318281613146565b9050919050565b7f45524337323155524953746f726167653a2055524920736574206f66206e6f6e60008201527f6578697374656e7420746f6b656e000000000000000000000000000000000000602082015250565b60006131e5602e83612029565b91506131f082613189565b604082019050919050565b60006020820190508181036000830152613214816131d8565b9050919050565b7f4552433732313a20617070726f766520746f2063616c6c657200000000000000600082015250565b6000613251601983612029565b915061325c8261321b565b602082019050919050565b6000602082019050818103600083015261328081613244565b9050919050565b7f4552433732313a207472616e7366657220746f206e6f6e20455243373231526560008201527f63656976657220696d706c656d656e7465720000000000000000000000000000602082015250565b60006132e3603283612029565b91506132ee82613287565b604082019050919050565b60006020820190508181036000830152613312816132d6565b9050919050565b600081519050919050565b600082825260208201905092915050565b600061334082613319565b61334a8185613324565b935061335a81856020860161203a565b61336381612064565b840191505092915050565b60006080820190506133836000830187612165565b6133906020830186612165565b61339d604083018561224e565b81810360608301526133af8184613335565b905095945050505050565b6000815190506133c981611f8f565b92915050565b6000602082840312156133e5576133e4611f59565b5b60006133f3848285016133ba565b9150509291505056fea2646970667358221220eef67a3022d2a26e2cd4b760be69bd8f139373f2723577a92d0aca890f1fc46064736f6c634300081c0033",
  "linkReferences": {},
  "deployedLinkReferences": {}
}